:100000000C942A000C9434000C9434000C943400AA
:100010000C9434000C9434000C9434000C94340090
:100020000C9434000C9434000C9434000C94340080
:100030000C9434000C9434000C9434000C94340070
:100040000C9434000C9434000C9434000C94340060
:100050000C94340011241FBECFE5D4E0DEBFCDBF29
:100060000E9436000C9486000C94000086E08ABB47
:100070008CE081BB1BBA12BA8AB384708BBB12BAF4
:100080002FEF89E698E1215080409040E1F700C0D1
:1000900000008AB382708BBB2FEF89E698E1215074
:1000A00080409040E1F700C000001BBA81B384702B
:1000B00082BB2FEF89E698E1215080409040E1F724
:1000C00000C0000081B3887082BB2FEF89E698E101
:1000D000215080409040E1F700C000008FE08BBBD2
:1000E00082BB2FEF89E698E1215080409040E1F7F4
:1000F00000C000001BBA12BA2FEF89E698E1215028
:1001000080409040E1F700C00000B6CFF894FFCFE8
:00000001FF
